{
  "network": "mainnet",
  "raw_tx": "02000000000102a1a1a1a1a1a1a1a1a1a1a1a1a1a1a1a1a1a1a1a1a1a1a1a1a1a1a1a1a1a1a1a10000000000feffffffb2b2b2b2b2b2b2b2b2b2b2b2b2b2b2b2b2b2b2b2b2b2b2b2b2b2b2b2b2b2b2b20200000000fdffffff0210270000000000001600141313131313131313131313131313131313131313e02e00000000000022512014141414141414141414141414141414141414141414141414141414141414140247eed60c73dec1a4307bb6ade00521a58737c9e184e5f42329a9d82f63456c886ade14624e2f582c43767fffc7d06a49772d53847b711e86cb86cb46d018d9363b01f417e074a55421688bc8d5d9d8ab2ef6065ad8285a8faf92ca89371c9eb7478ec091bb36914b90440000000000",
  "prevouts": [
    {
      "txid": "a1a1a1a1a1a1a1a1a1a1a1a1a1a1a1a1a1a1a1a1a1a1a1a1a1a1a1a1a1a1a1a1",
      "vout": 0,
      "value_sats": 15000,
      "script_pubkey_hex": "00141515151515151515151515151515151515151515"
    },
    {
      "txid": "b2b2b2b2b2b2b2b2b2b2b2b2b2b2b2b2b2b2b2b2b2b2b2b2b2b2b2b2b2b2b2b2",
      "vout": 2,
      "value_sats": 9000,
      "script_pubkey_hex": "76a914161616161616161616161616161616161616161688ac"
    }
  ]
}