{
  "network": "mainnet",
  "raw_tx": "02000000021032547698badcfeefcdab89674523011032547698badcfeefcdab89674523010000000000ffffffff00112233445566778899aabbccddeeffffeeddccbbaa998877665544332211000100000000fdffffff02b80b0000000000001600142323232323232323232323232323232323232323e803000000000000225120242424242424242424242424242424242424242424242424242424242424242400000000",
  "prevouts": [
    {
      "txid": "00112233445566778899aabbccddeeffffeeddccbbaa99887766554433221100",
      "vout": 1,
      "value_sats": 6000,
      "script_pubkey_hex": "00142525252525252525252525252525252525252525"
    },
    {
      "txid": "0123456789abcdeffedcba98765432100123456789abcdeffedcba9876543210",
      "vout": 0,
      "value_sats": 5000,
      "script_pubkey_hex": "76a914262626262626262626262626262626262626262688ac"
    }
  ]
}