{
  "network": "mainnet",
  "raw_tx": "01000000013333333333333333333333333333333333333333333333333333333333333333020000000151ffffffff0250c300000000000017a914060606060606060606060606060606060606060687409c000000000000220020070707070707070707070707070707070707070707070707070707070707070700000000",
  "prevouts": [
    {
      "txid": "3333333333333333333333333333333333333333333333333333333333333333",
      "vout": 2,
      "value_sats": 100000,
      "script_pubkey_hex": "a914080808080808080808080808080808080808080887"
    }
  ]
}