{
  "network": "mainnet",
  "raw_tx": "020000000111111111111111111111111111111111111111111111111111111111111111110000000000ffffffff02b0040000000000001976a914010101010101010101010101010101010101010188ac00000000000000000a6a08736f622d3230323600000000",
  "prevouts": [
    {
      "txid": "1111111111111111111111111111111111111111111111111111111111111111",
      "vout": 0,
      "value_sats": 2000,
      "script_pubkey_hex": "76a914020202020202020202020202020202020202020288ac"
    }
  ]
}