{
  "network": "mainnet",
  "raw_tx": "0200000000010122222222222222222222222222222222222222222222222222222222222222220100000000feffffff02102700000000000016001403030303030303030303030303030303030303038813000000000000225120040404040404040404040404040404040404040404040404040404040404040402471e5180f383a5dcf31ae239e5999f8e6bc8928cd7bbc6c47dc0c596703d009d141c49d1197302d0e4af7dad5035654059faffed5bce60ffbe83a313b957168e894a497524e0a5b421b7934f06d9b55e5d766c1766e4958d7fde1d6c81cdc0dd99e07d65ea8642d86b9000000000",
  "prevouts": [
    {
      "txid": "2222222222222222222222222222222222222222222222222222222222222222",
      "vout": 1,
      "value_sats": 20000,
      "script_pubkey_hex": "00140505050505050505050505050505050505050505"
    }
  ]
}